:020000040800F2
:1000000060200020A52E00089D1800089F180008F9
:10001000A1180008A3180008A51800080000000097
:10002000000000000000000000000000A718000809
:10003000A918000800000000AB180008BD2E000839
:10004000BF2E0008BF2E0008BF2E0008BF2E0008DC
:10005000BF2E0008BF2E0008BF2E0008BF2E0008CC
:10006000BF2E0008BF2E0008BF2E0008BF2E0008BC
:10007000BF2E0008BF2E0008BF2E0008BF2E0008AC
:10008000BF2E0008BF2E0008BF2E0008BF2E00089C
:10009000AD180008BF2E0008BF2E0008BF2E0008B4
:1000A000BF2E0008BF2E0008BF2E0008BF2E00087C
:1000B000BF2E0008BF2E000800000000BF2E000861
:1000C000BF2E00080000000000000000BF2E000846
:1000D00000000000BF2E0008BF2E00080000000036
:1000E000BF2E0008BF2E0008BF2E000800F002F847
:1000F00000F05AF80AA090E8000C82448344AAF168
:100100000107DA4501D100F04FF8AFF2090EBAE865
:100110000F0013F0010F18BFFB1A43F0010318473B
:10012000BC490000DC4900000A444FF0000C10F804
:10013000013B13F0070408BF10F8014B1D1108BF65
:1001400010F8015B641E05D010F8016B641E01F805
:10015000016BF9D113F0080F1EBF10F8014BAD1C55
:100160000C1B09D16D1E58BF01F801CBFAD505E073
:1001700014F8016B01F8016B6D1EF9D59142D6D3CD
:10018000704700000023002400250026103A28BFF5
:1001900078C1FBD8520728BF30C148BF0B607047F9
:1001A0001FB51FBD10B510BD03F085FE1146FFF74A
:1001B000F7FF00F0CFFF03F0A3FE03B4FFF7F2FF59
:1001C00003BC03F0ABFE000010B503F0DBFB4FF403
:1001D0008034204603F0EFFB03F01AFC4649012867
:1001E000087000D0FEE7102003F06AF8022003F048
:1001F00057F8002003F044FC002003F04FFC4FF4BC
:10020000806003F044FC4FF48011204603F021FC91
:10021000012003F026FC392003F0E5FB0028FAD08A
:10022000022003F021FC03F026FC0828FBD110BDBE
:1002300010B5012003F043FC0121BDE81040C805C2
:1002400003F0B6BC2D490320086070472C48817A22
:100250002A4809B1052100E001210160704738B545
:100260004FF4C06002F0E0FE14208DF80000012081
:100270008DF8010000248DF802408DF803006846D7
:1002800002F0D7FE26208DF800008DF80140684668
:1002900002F0CFFE38BD7047F0B500230A243025A8
:1002A00037261F4610E0B4EB107F02D905EB107C17
:1002B00001E006EB107C01F813C001EB430C0001D8
:1002C0005B1C8CF80170DBB29342ECD3F0BD0D489F
:1002D00010B50168001D0468001D006808180AD0E8
:1002E00008220949FFF7D8FF074920460422BDE844
:1002F00010401031D0E710BD000000204001002068
:10030000E0190020E8F7FF1F3E00002008B5322367
:1003100004E0009300994A1E0092FBD2401EF8D2DE
:1003200008BD38B50020009003F02CFB4FF480345A
:10033000204603F040FB03F06BFB0090012821D125
:10034000102002F0BDFF022002F0AAFF002003F0FF
:1003500097FB002003F0A2FBA01103F098FB210102
:10036000204603F076FB012003F07BFB392003F0ED
:100370003AFB0028FAD0022003F076FB03F07BFB67
:100380000828FBD138BD70B5FA4C0546022120463D
:1003900003F060FD0028F9D02946204603F016FD41
:1003A0000121204603F056FD0028F9D0204603F035
:1003B0000FFDC0B270BD70B5EF4D4FF40044214643
:1003C000284603F070FA0620FFF7DDFF2146284695
:1003D000BDE8704003F065BA70B5E74D4FF40044D6
:1003E0002146284603F05FFA0520FFF7CCFFFF20E7
:1003F000FFF7C9FFC007FAD121462846BDE8704083
:1004000003F04FBA2DE9F041DB4E0C4607464FF49E
:10041000004590462946304603F045FA0320FFF791
:10042000B2FFC4F30740FFF7AEFFC4F30720FFF7A6
:10043000AAFFE0B2FFF7A7FF42463946012001F0CC
:10044000CBF929463046BDE8F04103F02ABA2DE940
:10045000F04114460F460546FFF7ADFFDFF818835D
:100460004FF400463146404603F01DFA0220FFF7E4
:100470008AFFC7F30740FFF786FFC7F30720FFF7A0
:1004800082FFF8B2FFF77FFFF011844205D90446DE
:1004900003E02878FFF777FF6D1C641EA4B2F8D242
:1004A0003146404603F0FDF9BDE8F04194E72DE9FF
:1004B000F0410D46064600244FF480773A4629461F
:1004C0003046FFF7C4FF641C05F5807506F580769D
:1004D000082CF3DBBDE8F08170B50446FFF76BFF35
:1004E000A54E4FF400452946304603F0DCF9D820EC
:1004F000FFF749FFC4F30740FFF745FFC4F30720A8
:10050000FFF741FFE0B2FFF73EFF2946304603F018
:10051000C8F9BDE870405FE770B5FFF74CFF964D36
:100520004FF400442146284603F0BDF9C720FFF7E9
:100530002AFF2146284603F0B4F9BDE870404BE796
:1005400010B56FF0040002F0B4FD8C49062008706D
:1005500010BD8A49097848434FF0E02148610023E3
:100560008B61012008610869C20701D0C003FAD578
:100570000B618B61704710B503F004FA012003F0A2
:1005800065FA212003F02FFA0028FAD0102002F09B
:1005900097FE022002F084FE002003F071FA4FF46F
:1005A000806003F074FA002003F078FA4FF4201111
:1005B000002003F04EFA012003F053FA392003F033
:1005C00012FA0028FAD0022003F04EFA03F053FA90
:1005D0000828FBD110BDC11700EB91718A1021F0E2
:1005E0000301411A664810B500EB8200634A90602F
:1005F00002684FEA1264C2F30743C2F30720D2B283
:1006000007D0012907D0022902D0032905D00020F4
:1006100010BD204610BD184610BD104610BD70B567
:10062000564E574C574DB4603079287070796870C9
:1006300006F1300001782975417869758178A975CE
:10064000C178E97501792976417969768179A97648
:10065000C079E87602F043FE342003F04AF82046E1
:1006600002F071FE042800D0FEE7B460002405EB20
:10067000840015F82420C17801EB0261427880786B
:10068000120402EB00200144B06802F0FAFEB068E8
:10069000641C001DB060FF2CE9D9BDE8704002F079
:1006A0002ABE2DE9F0478246002533480322A8469A
:1006B0000C3098E0334B354E5C5D334B765D53F830
:1006C000244053F82630C4F30746B6FBF1F7C4F3D1
:1006D0000726B6FBF1F6E4B2B4FBF1F43F0447EAB7
:1006E000062C4CEA040CC3F30744B4FBF1F6C3F345
:1006F0000724B4FBF1F4DBB2B3FBF1F3360446EAB2
:1007000004271F434FF4000300264CEA070913EAAD
:100710000C0F03EA07041BD0026002600260026053
:100720005CB102600260026002600260026002600E
:10073000026002600260026001E001240EE0C0F885
:100740000080C0F80080C0F80080C0F800801FE082
:10075000F4B102600260026002600224046004607E
:100760000460046004600460046004600460046069
:100770000460E4E70030014000080140040000206C
:10078000007C00088C010020344000088C0D002003
:1007900019EA030F21D10260026002600260C0F812
:1007A0000080C0F80080C0F80080C0F80080C0F869
:1007B0000080C0F80080C0F80080C0F80080C0F859
:1007C0000080C0F80080C0F80080C0F80080C0F849
:1007D0000080C0F80080C0F80080761C5B08F6B28C
:1007E000182E94D36D1C5545FFF664AFBDE8F08715
:1007F0002DE9F34FFE4882B00025D0E90020CDE975
:100800000020FC48E8464FF4000A2A46032658F820
:10081000257054460023274218D006600660066003
:1008200006600660026002600260026002600260B0
:1008300002600260026002600260026002600260A8
:100840000260026002600260026017E00260026003
:10085000026002600260026002600660066006607C
:100860000660066006600660066006600660066058
:1008700006600660066006600660066006605B1C37
:100880006408DBB2182BC6D36D1C022DBFDB00241D
:100890004FF0010B4FF0020EBEE0D74BD84F1D5D5D
:1008A000D64B3F5D53F8255053F82730D04FC5F352
:1008B000074C083717F80CC0BCFBF1F8C5F3072C40
:1008C000EDB217F80CC07D5DBCFBF1FCB5FBF1F59A
:1008D0004FEA084848EA0C2C4CEA0508C3F30745E0
:1008E0007D5DB5FBF1FCC3F30725DBB27D5DFB5CF1
:1008F000B5FBF1F5B3FBF1F34FEA0C4747EA0527E7
:100900001F435346002548EA070913EA080F03EA84
:10091000070C2CD0BCF1000F18D0066006600660F2
:1009200006600660026002600260026002600260AF
:1009300002600260026002600260026002600260A7
:10094000026002600260026002600EE0C0F800B067
:10095000C0F800B0C0F800B0C0F800B0C0F800B0F7
:10096000026002600260F44612E0066031E0BCF111
:10097000000F2ED0C0F800E0C0F800E0C0F800E0A2
:10098000C0F800E0C0F800E0026002600260DC46EF
:10099000C0F800C0C0F800C0C0F800C0C0F800C077
:1009A000C0F800C0C0F800C0C0F800C0C0F800C067
:1009B000C0F800C0C0F800C0C0F800C0C0F800C057
:1009C000C0F800C0C0F800C0C0F800C0C0F800C047
:1009D000CBE719EA030F18D10260026002600260DF
:1009E00002600260026002600660066006600660E7
:1009F00006600660066006600660066006600660C7
:100A0000066006600660066006606D1C5B08EDB25D
:100A1000182DFFF47AAF641C029B9C42FFF63DAF99
:100A20000660066006600660066006600660066096
:100A30000660066006600660066006600660066086
:100A40000660066006600660066006600660066076
:100A50000660066006600660066006600660066066
:100A60000660066006600660066006600660066056
:100A70000660066006600660066006600660066046
:100A80000660066006600660066006600660066036
:100A90000660066006600660026002600260066032
:100AA000BDE8FF8F2DE9F04700278246B8460322B4
:100AB000504883E0504C07EB4703E55C1C44B5FB12
:100AC000F1F56678A478B6FBF1F6B4FBF1F42D04E9
:100AD00045EA062C4A4D4CEA040CEC5C2B44B4FB72
:100AE000F1F45D789B78B5FBF1F5B3FBF1F32404E9
:100AF00044EA05261E434FF4000300254CEA06098C
:100B000013EA0C0F03EA06041BD0026002600260C5
:100B100002605CB10260026002600260026002601A
:100B20000260026002600260026001E001240EE0E7
:100B3000C0F80080C0F80080C0F80080C0F80080D5
:100B400011E084B10260026002600260022404606D
:100B50000460046004600460046004600460046075
:100B600004600460E4E719EA030F21D10260026027
:100B700002600260C0F80080C0F80080C0F8008009
:100B8000C0F80080C0F80080C0F80080C0F8008085
:100B9000C0F80080C0F80080C0F80080C0F8008075
:100BA000C0F80080C0F80080C0F80080C0F8008065
:100BB0006D1C5B08EDB2182DA2D37F1C5745FFF6C4
:100BC00079AF13E62DE9F04F0A4D0222083583462E
:100BD0002A6001262E6000202F1F92463A602A606C
:100BE000401C2028F9DB0020DFF818E067E0000057
:100BF0002C3F00080C0801408C0100203440000804
:100C00008C0D0020344400083E605446C7F800A014
:100C1000C5F800A0B0F5406F02DAFE4A135C05E0AB
:100C2000FD4A0244A2F5805292F80034A2463EF8F2
:100C30001320FA4BC2F3842CC2F3441802F01F02B3
:100C400013F83CC013F8322013F83880D208B2FBF6
:100C5000F1F94FEADC0C4FEAD808BCFBF1FCB8FB19
:100C6000F1F81022002312EA0C0F01D03E6000E0E0
:100C70002E605446C7F800A0C5F800A052085B1CBF
:100C8000052BF0DB1022002312EA080F01D03E6092
:100C900000E02E603C602C6052085B1C052BF3DBEF
:100CA0001022002312EA090F01D03E6000E02E60FE
:100CB0003C602C6052085B1C052BF3DB401C584544
:100CC000A2DB2E600020514602E039602960401C02
:100CD0005845FADBBDE8F08FF0B5D14ACD4BCE4D8B
:100CE00096794FF44064012E07D0D2E908673E435D
:100CF00011D0D269904202DB10E0A04201DA19540F
:100D0000F0BDA0F54062A242FAD22844A0F580507E
:100D100080F80014F0BDA042F1DBF0BD801AA042C3
:100D2000FBD22954F0BDF0B5BE4D4FF480742C6059
:100D300066002F1F3E60BC494FF4005CC1F810C034
:100D4000A2010A6153000B6138B1012807D00228C3
:100D500007D0032808D04B61F0BD3C60F0BD2E6089
:100D6000F0BDC1F814C0F0BD4A61F0BDF0B5AD4BA7
:100D70004FF4807119604C001A1F1460AA4D4E0187
:100D80002E618F012F614FF4004CC5F810C001286F
:100D90000ED002280ED003280FD0042811D0052829
:100DA00005D111601C606E616F61C5F814C0F0BDA3
:100DB0001160F0BD11601C60F0BD11601C606E61BF
:100DC000F0BD11601C606E616F61F0BD01B50098EF
:100DD00001E0401E00900028FBD108BD904810B5EE
:100DE000407800280DD18F48012101608F4C2046AA
:100DF000FFF7ECFF8B4A121F11602046BDE8104040
:100E0000E4E710BD2DE9F043864C4FF48072241FB7
:100E100022605500261D3560834957014F614FF40C
:100E20008048C1F814804FF4004CC1F814C0DFF8BA
:100E3000FC914846FFF7CAFF326025600F61C1F898
:100E40001080C1F810C04846FFF7C0FF226035602F
:100E50004F61C1F81480C1F814C04846FFF7B6FFCF
:100E6000326025600F61C1F81080C1F810C048469B
:100E7000FFF7ACFF226035604F61C1F81480C1F804
:100E800014C04846FFF7A2FF326025600F61C1F829
:100E90001080C1F810C04846FFF798FF2260356007
:100EA0004F61C1F81480C1F814C04846FFF78EFFA7
:100EB000326025600F61C1F81080C1F810C048464B
:100EC000FFF784FF226035604F61C1F81480C1F8DC
:100ED00014C04846FFF77AFF326025600F61C1F801
:100EE0001080C1F810C04846BDE8F0436EE7514895
:100EF0004F4A42605049416082608160C169890700
:100F00002CD4C168C907FCD1016941F020010161FD
:100F1000016941F040010161C168C907FCD1016963
:100F200021F020010161016941F010010161434A92
:100F300055211180C168C907FCD1016921F0100158
:100F40000161BFF34F8F3E4801683E4A01F4E06102
:100F500011430160BFF34F8F00BFFDE7704770B5CD
:100F60002F4C303400284FF0000001D02A4D1CE0F7
:100F7000284D0BE04318DE1703EB567626F00706E4
:100F80009B1B2E5C1B5D73402B54401C9042F1DB7D
:100F900070BD4318DE1703EB567626F007069B1B41
:100FA0002E5C1B5D73402B54401C9042F1DB70BDE6
:100FB0002DE9F0411A4D002420222C616C61EC7067
:100FC0002C7121461348EC60FFF71CFA114F05F114
:100FD000280638784C2805D17878452802D1B87889
:100FE000442803D0FFF7FAFE3470FBE7F878E87086
:100FF0003879A871F879397A00EB0120A861787AFC
:10100000B97A00EB0120E861F87A397B00EB012026
:10101000286219E08C0100208C0D0020343F00086C
:1010200004000020140C014000100140E093040073
:101030002301674500200240AB89EFCD00F8FF1F78
:101040000CED00E00400FA05787BB97B00EB012091
:101050006862F87B397C00EB01206861787CB97CA0
:1010600000EB012028610020FFF7B5FA2871642801
:1010700001D9642028710120FFF7ADFA6871A0B38F
:101080000A2801D90A2068711420FFF7A4FADFF8B2
:1010900070C48CF800001520FFF79DFA8CF8010051
:1010A0001620FFF798FA8CF802001720FFF793FA42
:1010B0008CF803001820FFF78EFA8CF80400192032
:1010C000FFF789FA8CF805001A20FFF784FA8CF8EC
:1010D00006001B20FFF77FFA8CF80700286900281C
:1010E00006DCFFF77BFE7470FBE7FFE70120CAE731
:1010F000A8794FF44061012801D040B10EE0686941
:10110000B0F5C05F0ADDFFF769FEB470FBE7686900
:10111000884203DDFFF762FEF470FBE7F94A002026
:101120003C541454401C8842FADBE878BDE8F04196
:10113000F9E508B54FF4C06001F076FF14208DF892
:10114000000001208DF801008DF80300684601F0D1
:1011500070FF08BD0026374635463446B1460121AA
:10116000042002F01CFD0121082002F018FD0121DD
:10117000102002F014FD0121080302F010FD0121EE
:10118000084602F00CFD0121084602F0ABFB0121EC
:10119000DD4802F0A7FBDFF8688340F28131A8F157
:1011A00004084FF0100AA8F8001088F803A04FF0C8
:1011B000030B88F802B04146D44802F008FB4FF414
:1011C0006041A8F8001088F803A088F802B04146F2
:1011D000CF4802F0FCFA40F20641A8F8001048217E
:1011E00088F803104146C94802F0F1FA48F20301B9
:1011F000A8F8001088F803A088F802B04146C54856
:1012000002F0E5FA2821A8F8001088F802B01821A9
:1012100088F803104146BD4802F0D9FAA8F800A0AA
:10122000042188F803104146B84802F0D0FABA48C1
:1012300000214FF48272018042808180C18001814F
:101240004FF40078A0F80A808181C18107210182D2
:10125000DFF8C8A20146504602F014FD01215046B5
:1012600002F08CFDFFF787F9FEF7E2FFFFF761FF61
:10127000FFF766F901F074F9DFF890B24FF480716E
:101280000BF1140BCBF80010ABF10401C1F8008096
:101290009F48491401614900016101464FF400482B
:1012A000C1F810804CF2503A5046FFF78FFD41468E
:1012B000984802F0F8FA4146964802F0F2FA504691
:1012C000FFF784FD4146934802F0EDFA414691480C
:1012D00002F0E7FAFFF76CFEDFF82482A8F130088D
:1012E00098F801000028F7D147B1012F7DD0022FD7
:1012F000F2D1B9F1000F844678D0F1E198F80600F8
:10130000012846D0D8E90810014370D0D8F81C1045
:101310008AB20144D8F80C00414381482031FFF7DC
:1013200071F800210846D8F81C20FFF718FED8F8FD
:101330002410D8F81C008AB24318D8F80C102030BA
:1013400001FB03016F48FFF75DF80120D8F8242066
:10135000D8F81C10FFF703FE98F80310D8F8140013
:10136000022998F8051063D0FFF79BF9D8F80C0014
:101370004246401CC8F80C00D8F81010884201DB27
:101380000020D06042F21070FFF720FD002192464D
:1013900056E0D8F81C004FF4406290420CDCD8F8BC
:1013A0000C1082B241435E482031FFF72BF8002138
:1013B0000846D8F81C2023E0D8F80C109246414388
:1013C00057482031FFF71EF8002152460846FFF724
:1013D000C6FDD8F81C00A0F540618AB2D8F80C1000
:1013E0004143484801F5426102E0CEE038E110E0B7
:1013F000FFF708F8D8F81C2051460120A2F54062FA
:10140000FFF7ADFD98F80510D8F81C00FFF7DAFBE0
:10141000ACE7D8F81C00D8F80C1082B24143404821
:101420002031FEF7EFFF00210846D8F81C2091E795
:10143000FFF7DEF99AE742F21070FFF7C7FC491C8C
:101440009AF804008142F6DB4FF480612F4802F0E5
:1014500014FA10B121E008F1010080464FF48061D8
:101460002A4802F00AFA0028F5D02E4988450ADDFC
:101470003EB10026FFF7C6FC9AF80300FFF753FCC5
:1014800007E00126F6E742F21071884501DD0127E9
:1014900000254FF49670FEF739FFDFF870800421C5
:1014A000404602F0EAF910BB16B1012E08D01EE04A
:1014B0009AF80400632811D2401C8AF8040006E060
:1014C0009AF805000A2809D2401C8AF80500FFF79F
:1014D000A6F84FF49670FEF719FF08E00B480121BB
:1014E000103001601048FFF771FCCBF800100221AA
:1014F000404602F0C2F968BBC6B1012E1DD032E0F1
:10150000340000208C0D002000023000000C01404F
:1015100000100140000801408C19002000300140FB
:101520008C01002040420F00E09304009AF8040070
:1015300088B1401E8AF8040006E09AF805000228E7
:1015400009D9401E8AF80500FFF769F84FF4967034
:10155000FEF7DCFE07E0CD4801210160CC48FFF733
:1015600035FCCBF800109AF8021039B19AF80C004B
:10157000C00706D0C54980200860ADE680205946E6
:10158000FAE78021CBF80010A6E64FF0000C0AE045
:1015900025B3012D24D0022D24D00F216046FFF762
:1015A0009BFB0CF1010CD8F81C10D8F8240008445F
:1015B0006045EDDC98F806000128404614D0C1785B
:1015C00002294179D8F8140014D0FFF76AF842F2E2
:1015D0001070FFF7FBFB0021424613E00121DDE71D
:1015E0000221DBE70421D9E74179D8F81C00FFF795
:1015F000E9FAECE7FFF7FCF8E9E742F21070FFF7D1
:10160000E5FB491C107900EB8000B1EB400FF4DBE7
:101610006D1CEDB2042D00D300259C484FF4806A68
:101620005146103802F029F90028A6D101E008F14E
:101630000100804695485146103802F01EF90028F6
:10164000F5D042F21071884503DD4FF00009022702
:101650004C46BCE000216046FFF73EFB0CF1010C5C
:10166000D8F81C10D8F8240008446045F2DC4FF08C
:10167000000C05E00F216046FFF72EFB0CF1010C7A
:10168000A445F7DB01210020FFF726FBD8F81C104A
:10169000D8F82400641C0844A04200DA0024A042C8
:1016A0000BDD7A480221103802F0E7F828B94FF034
:1016B00001094FF49670FEF729FE012C47DD7348AF
:1016C0000421103802F0D9F8F0BB4FF001094FF4B3
:1016D000967038E000216046FFF7FEFA0CF1010C2D
:1016E000D8F81C10D8F8240008446045F2DC4FF00C
:1016F000000C05E00F216046FFF7EEFA0CF1010C3B
:10170000A445F7DB01210020FFF7E6FAD8F81C100A
:10171000D8F824000844A0420ADD5C4802211038B1
:1017200002F0ABF820B94FF49670641CFEF7EEFDA2
:10173000012C0CDD55480421103802F09EF818B930
:101740004FF49670641E00E001E0FEF7DFFD98F8AC
:101750000600012840460ED0C17802294179D8F808
:1017600014000ED0FEF79DFF42F21070FFF72EFB23
:10177000002142460DE04179D8F81C00FFF722FA1B
:10178000F2E7FFF735F8EFE742F21070FFF71EFBC4
:10179000491C10798142F7DB3C484FF480611038D6
:1017A00002F06BF800287FF4E8AE80464FF4806AC0
:1017B00001E008F1010835485146103802F05DF8A3
:1017C0000028F6D042F21071884500DD00274FF462
:1017D0009670FEF79BFD7FE5F0B50F4601218BB0BB
:1017E0001646084602F0D2F92A4D284601F074FC4C
:1017F00029480024009006940794CDE903644FF42F
:101800004050CDE90840694628460A9401F0D1FCD1
:10181000204D1435284601F05FFC1E4E2836304618
:1018200001F05AFC80200590CDE9017469462846F4
:1018300001F0BFFCFF200190102002906946059442
:10184000304601F0B6FC0121284601F0DCFC012104
:10185000304601F0D8FC104C01220C3C03212046FC
:1018600002F0ACFA202001F0E6FC0028FAD00021BA
:10187000284601F0C8FC0021304601F0C4FC0022DB
:101880000321204602F09AFA0BB0F0BD100C014083
:10189000E0930400080002400C3001407047FEE76E
:1018A000FEE7FEE7FEE770477047704700F0B2B80A
:1018B0003021012000F0B5BF2DE9F0414A49012057
:1018C00001F0D9FA494B4848494C19784FF4405631
:1018D0000025B1B1E560474B2268E16801EB821C4D
:1018E000475C491C03F80C70E1604029F5DB521C91
:1018F0002260202A70DB25606068E8B3C10643D00F
:1019000045E02560656041798279090201EB024179
:10191000027901251144384AA160C1791170374A12
:10192000017A1170027D36498C5C364A1470447D10
:101930000C5D5470847D0C5D9470C47D0C5DD4701E
:10194000047E0C5D1471447E0C5D5471847E0C5DCC
:101950009471C47E095DD1711D70417A43290DD106
:10196000817A48290AD1C17A452907D1017B4329C7
:1019700004D1407B4B2800E007E002D0FFF72EFAAD
:10198000FCE7FEF74CFE27E0C002FEF7A5FD60680D
:10199000C1021848FEF78BFD6068401C6060A168BA
:1019A000884212DB184831460570012000F04FFFD5
:1019B000BFF34F8F15480168154A01F4E0611143E8
:1019C0000160BFF34F8F00BFFDE7052190FBF1F2EF
:1019D00001FB1200FFF7CAF93146BDE8F0410120D2
:1019E00000F035BF704700009E1900200500002060
:1019F000580000208C010020080000200900002071
:101A00003446000834000020060000200CED00E001
:101A10000400FA0570B5294C2068294D6880688853
:101A2000284E31880840000401D500F0ADFD6888DB
:101A300031880840400505D54FF6FF302060224828
:101A400040688047698830880140890402D54DF696
:101A5000FF71216069880140C80405D54EF6FF700A
:101A60002060002000F053F96888318808400005A4
:101A70000BD51648007810B100F02FF902E00220D3
:101A800000F045F94FF2FF7020606988308801400E
:101A9000890505D54FF6FF5121602978491C297029
:101AA00069880140C80507D54FF6FF602060BDE892
:101AB0007040072000F02BB970BD0000445C00406E
:101AC000680000205C010020CC00002044010020C0
:101AD00010B5FEF7FCFB6C4800240068847200F02F
:101AE000DDF801F0A9F96948046010BD664810B539
:101AF000006800218172C1726549C9794172002074
:101B000000F062FE4FF40071002000F075FE10211D
:101B1000002000F086FE1821002000F0D7FF582199
:101B2000002000F0C7FF002000F009FF594890F89E
:101B30002C10002001F00CF8002000F0D4FE4FF42F
:101B4000C061012000F058FE4FF48071012000F0C8
:101B5000B1FF4FF48271012000F0B8FF0421012091
:101B600000F0D8FF4021012000F0F2FF4FF4405177
:101B7000012000F06CFE2021012000F052FE002028
:101B800000F02EFC41490120086010BD3E4800686D
:101B9000807A002808D03D49052008603E48017839
:101BA000002901D1012101707047384904200860E3
:101BB00070477047704710B1364824387047324933
:101BC000012009680882002070473249083900F076
:101BD0002DBA3049103900F029BA2B4910B50A68DE
:101BE0000628117801F07F0103D1012901D1537931
:101BF00013B121290CD016E09078222802D0212898
:101C000003D010E0AFF2350106E0AFF2410103E08E
:101C1000032808D1AFF2610129B1002091615082FF
:101C20008847002010BD022010BD174819490068E0
:101C30002439C07808600020704713490968097882
:101C400001F07F01212901D10B2801D0022070472A
:101C5000EBE71049203900F0E9B90E49183900F0D6
:101C6000E5B909490968C978042901D900207047F4
:101C7000084A303202EBC10100F0D8B909B9002896
:101C800000D00220704700005001002040010020D9
:101C9000464A0008CC0000200600002010B50120B4
:101CA000FEF7F9FA3748012101600021364A016048
:101CB000031D19604FF4E05111800160002010BD38
:101CC00010B5304C01202060211D00200860FEF777
:101CD000E2FA03202060002010BD2A48016889B282
:101CE00041F008010160016889B241F0040101601E
:101CF000FEF7A8BA10B5234C206880B220F004008B
:101D00002060FEF7A3FA4FF43F40206010BD70B58D
:101D10001E4C072800D0207020780625042619497B
:101D200006282CD2DFE800F00306090E1620FFF784
:101D3000E1FF24E0FFF7DEFF0AE0022060700320ED
:101D4000207070BD6078401E607060780028F8D107
:101D5000267070BD086880B240F010000860052051
:101D600020700A20607070BD6078401E60706078DE
:101D70000028F8D1086880B220F0100008602570B3
:101D800070BD0000405C00405C0100204501002067
:101D900010B5F64C30B1F6480068006880472068FE
:101DA0000A3010BD216801200882002010BDEF48D4
:101DB00010B50068EF4AC1785278914203D8827812
:101DC0000AB982880AB1022010BD8172E848006811
:101DD00040688047002010BD10B5E44C30B1E448A5
:101DE00000688068804720680C3010BD21680120A1
:101DF0000882002010BD10B5DC4CDF4A2068126854
:101E0000C17892694079904721688A7A22B118B9DD
:101E1000087908B9887808B1022010BDD448006854
:101E2000C068804720684179C172C1780173002081
:101E300010BDCE4910B5096860B1D04800220280BB
:101E40000A7853060AD002F07F02012A16D0022A2D
:101E500016D001E002200882002010BD497A8A06CF
:101E6000027802D542F0020201E002F0FD024906CA
:101E70000270D1B211D401F0FE0110E0BF4810BDD4
:101E800049790A070B06BE4901EB9261D1F8001CA3
:101E900007D5C1F3011106E0017841F0010101709D
:101EA00003E0C1F301310129F6D0B14800680069AF
:101EB0008047E3E72DE9F041AC480068017811F074
:101EC0007F0102D0022905D066E0417A01F0DF01EE
:101ED00041724EE0418800295ED10179F1BB417920
:101EE000A74D21F080040A0605EB8402A14BD2F82D
:101EF000002C03D5C2F30112120102E0C2F3013239
:101F000012031E782346A64246D93AB3807A28B3F4
:101F100008064FEA84000ED52844D0F8000CC0F320
:101F20000110012821D1184600F09BFD20463021E8
:101F300000F077FC19E04619D6F8000CC0F3013028
:101F4000012812D14BF68F7748F28008A4B11846C9
:101F500000F075FDD6F8000C384000E01CE080F47D
:101F6000405040EA0800C6F8000C8148006840690B
:101F700080470020BDE8F081824890F82C100020B6
:101F800000F0E6FDD5F8000C384080F4405040EAFF
:101F90000800C5F8000CE8E70220EBE770B57348CD
:101FA000774D0268517921F0800005EB80000B0627
:101FB000D0F8003C21F0800403D5C3F301131B01CA
:101FC00002E0C3F301331B036A4D2D78A54210D9FB
:101FD000548874B96BB1927A5AB10906D0F8001CD2
:101FE00048F2800207D548F6BF73194081F010010E
:101FF00006E0022070BD4BF68F73194081F48051CA
:102000001143C0F8001C5A480068806980470020CE
:1020100070BD564810B50068417A41F02001417208
:1020200053480068C0698047002010BD4F4A1368BC
:102030005A8A10B10868104470478888801A18823C
:10204000002070472DE9F047DFF820914E4F4FF008
:102050003008D9F8001001F11005088A0E7A08B985
:10206000042E04D0AC88A04216D8042615E04348BC
:10207000801E0178012903D00726102038802BE02C
:10208000424A00211268424B120403EBD2325160E3
:10209000A7F8008001701FE00226844200D90446A0
:1020A000A968204688478246002000F01CFD0146B2
:1020B0002246504600F048FB2146002000F02AFD51
:1020C0002888001B2880688820446880A7F8008042
:1020D00030494FF440500880D9F800000672BDE83E
:1020E000F08770B5214D296808784C78420606D0F3
:1020F00000F07F0001282BD002282ED050E0092CC0
:1021000006D0052C07D0032C0ED0012C17D047E0A9
:10211000FFF74DFE43E0C8787F2849D8887820BB78
:10212000888810BB887A42E0C878012838D188882E
:1021300090BB487A800633D5FFF76BFF2FE0C87855
:1021400001282DD1888838BB487A80060AD427E038
:102150000B2C25D1FFF74FFE21E0012C02D0032CE0
:102160001BD01DE0FFF7A6FE19E021E05001002082
:1021700058010020A4000020540100204A01002042
:1021800000500040CC00002060010020505C004066
:10219000006000405E01002002E0FFF7FFFE58B142
:1021A000E4492046096849698847032802D018B1E4
:1021B00008200DE009200BE0DF4A0620002112680C
:1021C000DE4B120403EBD2325160DD4A3021118024
:1021D0002968087270BDF8B5DA4CD64D092620681A
:1021E000002729684278062A05D0AAB1082A4ED0CD
:1021F0000A2A52D06EE0027852066BD1807801280C
:1022000004D0022804D0032804D063E0C96959E04F
:10221000096A57E0496A55E04288BABBC288022A77
:1022200058D1027992BB0278530601D1838833B129
:1022300002F07F02012A05D0022A0DD04AE0AFF257
:102240000D413FE08A69407900219047F0B920684C
:10225000807A0028F3D13DE0417901F00F0001F0D0
:1022600070020B06B84901EB8001D1F8001C03D5C0
:10227000C1F30111090102E0C1F301310903B34BBC
:102280001B78834226D90AB90029D8D122E00078E8
:1022900040061FD1AFF2075114E0027802F07F022E
:1022A000012A17D1827AAAB142889AB902798AB9E9
:1022B000C288012A0ED18A6940790021904748B925
:1022C000AFF2EB4131B1206847828161002088473D
:1022D000002006E0296820680969407888470328BB
:1022E00013D021680A8AA2F57F43FF3B0BD0022856
:1022F0000ED06AB10878000625D5C88800908242C1
:102300000AD9088218E00E72F8BD20680672F8BD7E
:102310004FF008000872F8BD0ED228688C4B90F878
:102320002C00824201D21F7006E0B2FBF0F400FBE9
:10233000142008B901201870286890F82C008882B1
:10234000BDE8F8407EE60320087282490003088059
:10235000F8BD814810B590F82C10002000F0F8FB73
:1023600078480068007A082802D0092809D006E0D9
:1023700078494FF48050088071491020088000206F
:1023800010BD012010BD70B56B4800686D4D000494
:10239000C10B6A480144098989B200EB41042868ED
:1023A000017A09290FD02178017061784170A088E5
:1023B00000F036FD29684880208900F031FD296849
:1023C0008880A089C880286801210172C08820B156
:1023D000FFF701FFBDE87040BBE7FFF782FEF9E7BA
:1023E000F0B55A49584E48F68F770D78002148F2DB
:1023F000800C0BE0CAB206EB8203D3F8004C3C40E1
:10240000144344EA0C04C3F8004C491CA942F1D31C
:10241000494940F08000091F0860F0BD10B5494CE3
:102420002068017A022904D0042902D0062905D0A7
:1024300015E0FFF707FE2068007A11E041780529D2
:1024400009D10178490606D1C078FFF7C9FF434892
:102450000068006A80473748006880688047082025
:1024600021680872BDE8104073E710B5354C20684C
:10247000007A022811D004280FD0032804D00528A0
:1024800002D0072805D008E000F00EF82068007A96
:1024900004E028480068C068804708202168087266
:1024A000BDE8104055E770472DE9F047254EDFF8AD
:1024B00090803027346834F8100FA168A9B100B3B8
:1024C000A588854200D90546284688478146208848
:1024D000401B2080608828446080002000F00EFBB4
:1024E00001462A46484600F041F9208848B119497A
:1024F0004FF4405008800021084600F00BFBA8F87C
:1025000000702088A188884201D3032001E018B11F
:10251000052031680872E2E5316806200872064934
:1025200000200968054A090402EBD1314860A8F887
:102530000070D4E554010020505C00400060004071
:10254000600100205001002000500040A400002045
:10255000480100205E010020CC000020580100202E
:1025600006490548022208600272064A0448C1E989
:102570000102006800470000E0190020500100201F
:10258000CC0000201C0100202DE9F84F0020ADF800
:1025900000004BF6BF7648F28008644D644C40F66C
:1025A0008F7ADFF8909148F60F7B634F2FE0088811
:1025B00010F00F0089F8000032D007EB8001D1F84D
:1025C000002CADF80020BDF8002012040BD5D1F886
:1025D000002C02EA0A02C1F8002C584901EB8000E5
:1025E00050F8040C8047BDF8000000060FD599F89C
:1025F000000007EB8001D1F8002C02EA0B02C1F8C1
:10260000002C4F4901EB800050F8040C80474748EC
:10261000443000684B4908800004C8D4BDE8F88FF6
:1026200028682080208800F030006080208800F436
:10263000405020802868304080F4005080F0200016
:1026400040EA080028600888C00617D4296801EA13
:102650000B012960FFF7E2FE28E02188890401D5FB
:1026600080F400506188C90628D46188890601D5A4
:1026700080F0200040EA08002860CFE72868ADF825
:102680000000BDF80000000506D5296801EA0A012E
:102690002960FFF778FE09E0BDF800000004B6D518
:1026A000286800EA0A002860FFF7DFFE2868218812
:1026B0003040C904D1D580F48050CEE780F01000BE
:1026C000D3E72DE9F041194C1A4E1B4F44341D4DF0
:1026D00025E047F6FF702060288800F00F0107EB27
:1026E00081003170D0F8002C92B2130408D5D0F8D4
:1026F000002C40F68F731A40C0F8002C0F4809E0F8
:1027000012060CD5D0F8002C48F60F731A40C0F80A
:10271000002C0B4800EB810050F8040C8047206827
:1027200028800004D5D4BDE8F0810000005C0040A2
:102730005E0100204C010020005000408800002075
:102740006C0000206A0000200F4B10B5521C52088C
:1027500003EB410109D010F8013B521E10F8014B68
:1027600043EA042321F8043BF5D110BD064B521C6B
:10277000520803EB410105D031F8043B20F8023B3D
:10278000521EF9D17047000000600040FB4908600C
:102790007047FA48006880B27047F849091D086020
:1027A0007047F648001D006880B27047F348083053
:1027B000006880B27047F1490C3108607047EF48FB
:1027C0000C30006880B27047EC4920F007001031EF
:1027D00008607047E9481030006880B27047E84AE6
:1027E00002EB8000C0F8001C7047E54901EB800057
:1027F000D0F8000C80B270478200E1481044D0F855
:10280000002C48F68F131A400A43C0F8002C70477A
:10281000DB4901EB8000D0F8000CC0F341204002FE
:1028200070478200D6480244D2F8000C48F6BF73C5
:102830001840CB0601D580F01000890601D580F044
:10284000200048F280010843C2F8000C7047820063
:10285000CB480244D2F8000C4BF68F731840CB04DF
:1028600001D580F48050890401D580F4005048F2ED
:1028700080010843C2F8000C704700B50B460246C1
:10288000FFF7B3FF9100BE4A012B0A4406D0022B8A
:1028900003D120F01000C2F8000C00BD20F48050DD
:1028A000F9E7B74901EB8000D0F8000CC0F3011044
:1028B00000017047B24901EB8000D0F8000CC0F372
:1028C0000130000370478100AD480844D0F8001C77
:1028D00048F6BF72114081F0300148F28002114386
:1028E000C0F8001C70478100A5480844D0F8001CBF
:1028F0004BF68F72114081F4405148F2800211432F
:10290000C0F8001C704781009D480844D0F8001CA6
:1029100048F68F72114048F280121143C0F8001C33
:102920007047810096480844D0F8001C48F68F6232
:10293000114048F280021143C0F8001C704781002A
:102940008F480844D0F8001C48F68F62114048F2C6
:1029500080021143C0F8001C704781008848084479
:10296000D0F8001C48F68F72114048F280121143D3
:10297000C0F8001C7047810081480844D0F8001C52
:1029800048F68F72114048F280121143C0F8001CC3
:10299000704781007A480844D0F8001C48F68F62DE
:1029A000114048F280021143C0F8001C704774497E
:1029B00001EB8000D0F8000CC0F30110012800D01A
:1029C000002070476E4901EB8000D0F8000CC0F386
:1029D0000130012800D00020704781006848084479
:1029E000D0F8001C40F68F721140C0F8001C7047F0
:1029F000810063480844D0F8001C48F60F7211406B
:102A0000C0F8001C704781005D480844D0F8001CE5
:102A100048F68F7211404CF280021143C0F8001C3E
:102A20007047810056480844D0F8001C48F68F7261
:102A3000114048F2C0021143C0F8001C70478100E9
:102A40004F480844D0F8001C490409D5D0F8001CB0
:102A500048F68F7211404CF280021143C0F8001CFE
:102A60007047810046480844D0F8001C490609D543
:102A7000D0F8001C48F68F72114048F2C002114392
:102A8000C0F8001C704782003D481044D0F8002C6C
:102A900048F68F731A400A4348F280010A43C0F88F
:102AA000002C7047364901EB8000D0F8000C00F094
:102AB0000F007047314A21F001011032126892B2C2
:102AC00002EBC0002F4A42F8101070472B4A21F049
:102AD00001011032126892B202EBC000294A02EBE7
:102AE00040008160704725491031096889B201EBC7
:102AF000C000244931F8100080B270471F491031DE
:102B0000096889B201EBC0001E4901EB4000008951
:102B100080B27047194A1032126892B202EBC000BC
:102B2000184A02EB4000416070473E2909D94A0922
:102B3000C90601D1521E92B24FF4004141EA8221EE
:102B400004E04A08C90700D0521C91020160704796
:102B50000A4A1032126892B202EBC000094A0C32E3
:102B600002EB40023E290FD94809C90601D1401E97
:102B700080B24FF4004141EA80200AE0405C00400E
:102B800000500040006000404808C90700D0401CC9
:102B9000800210607047A549096889B201EBC00046
:102BA000A34901EB40008088C0F3090070479F49AA
:102BB000096889B201EBC0009D4901EB40008089A2
:102BC000C0F30900704730B521F0010497490B6844
:102BD00022F001029BB203EBC0035D00944BEC506A
:102BE000096889B201EBC00003EB4000826030BD90
:102BF0008E4A21F00101126892B202EBC0008C4AA9
:102C000042F810107047894A21F00101126892B20F
:102C100002EBC000864A02EB4000816070478349A6
:102C2000096889B201EBC000814931F8100080B217
:102C300070477E49096889B201EBC0007C4901EB0D
:102C40004000008980B270472DE9F043774F012999
:102C500012D002290ED1396889B201EBC0014B00B4
:102C600073490B445A603B689BB203EBC00001EB15
:102C70004000C260BDE8F08339686D4B89B201EB5A
:102C8000C0011B1D03EB410C530951085D1E4C1C78
:102C90004FF400493E2A07D91E465FEAC26800D1B8
:102CA000AEB249EA862605E00E465FEAC27800D059
:102CB0002646B602CCF800603E68B6B206EBC0000D
:102CC0005B4E0C3606EB40003E2A05D9D10600D1FA
:102CD000ABB249EA832103E0D20700D02146890242
:102CE0000160C7E7514B01290AD0022907D11968B1
:102CF00089B201EBC0004E4901EB400042607047D1
:102D0000196889B201EBC0004949091D01EB400176
:102D10003E2A09D95009D20601D1401E80B24FF493
:102D2000004242EA802004E05008D20700D0401C54
:102D30008002086070473D4B01290AD0022907D163
:102D4000196889B201EBC000394901EB4000C2604B
:102D50007047196889B201EBC00035490C3101EBAD
:102D600040013E2A09D95009D20601D1401E80B245
:102D70004FF4004242EA802004E05008D20700D01D
:102D8000401C8002086070472849096889B201EB3D
:102D9000C000274901EB40008088C0F3090070475C
:102DA0002249096889B201EBC000214901EB4000CA
:102DB0008089C0F3090070471C490A6892B202EB8F
:102DC000C00253001A4A13449B8913F47C4F01D06C
:102DD00001207047096889B201EBC00002EB400096
:102DE00080888005F5D002207047124A48F68F731C
:102DF00002EB800001290AD0022907D1D0F8001C7B
:102E00004CF2800219401143C0F8001C7047D0F802
:102E1000001C48F2C0021940F5E741EA0020704763
:102E2000C1B2000A40EA012070470000505C004037
:102E30000060004000500040184900200860184918
:102E40004FF43F4008801549091F08600020704773
:102E500070B500F07F0514460E462846FFF743FE86
:102E60000146A2B23046FFF76FFCA1B22846FFF739
:102E700051FE002070BD70B500F07F060D46304653
:102E8000FFF795FE04463046FFF738FE014622461E
:102E90002846FFF76BFC204670BD0000445C0040F4
:102EA0005C0100200948804709480047FEE7FEE72B
:102EB000FEE7FEE7FEE7FEE7FEE7FEE7FEE7FEE7EA
:102EC00004480549054A064B70470000852F000855
:102ED000ED000008601A002060200020601C002027
:102EE000601C00200CB50022484800920192016845
:102EF00041F4803101604FF4A063016801F40031B6
:102F000001910099491C0091019911B900999942C8
:102F1000F3D10168890333D5012101913C490A6845
:102F200042F010020A600A6822F003020A600A688E
:102F300042F002020A6041684160416841604168B4
:102F400041F480614160416821F47C114160416835
:102F500041F488114160016841F0807101600168AD
:102F60008901FCD5416821F003014160416841F0CD
:102F7000020141604168C1F381010229FAD10CBD0F
:102F800001920CBD2148016841F0010101604168D6
:102F9000204A1140416001681F4A114001600168E8
:102FA00021F480210160416821F4FE0141604FF469
:102FB0001F01816096E7154A10B55068174B10F055
:102FC0000C01174803D0042901D0082901D003605F
:102FD00012E05168536801F470114FF0020413F4C9
:102FE000803F04EB914102D053689B0301D50D4B08
:102FF00000E00A4B594301605168094AC1F30311CB
:10300000121D515C0268CA40026010BD00100240EF
:10301000002002400000FFF8FFFFF6FE001BB70093
:1030200064010020808D5B0028490843284908601E
:10303000704730B50F23C27801780125F2B1244AD8
:10304000126801F1E02102F4E062C2F5E062120AC6
:10305000C2F10404D3404278A24084781C40144357
:10306000220181F80024007800F01F018D40400902
:10307000800000F1E020C0F8005130BD01F01F00D9
:1030800085404809800000F1E020C0F8805130BD43
:10309000104A114001430E48001F016070470C4A5E
:1030A000121D0029116801D0014300E08143116025
:1030B00070474FF0E0210428086903D020F0040095
:1030C0000861704740F00400FAE700000000FA05CC
:1030D0000CED00E080FFFF1F01684FF6FE7211400B
:1030E00001600021016041608160C1606A496A4AF3
:1030F0000839904203D1486840F00F0006E0664A64
:103100001432904204D1486840F0F00048607047A3
:10311000614A2832904203D1486840F47060F5E774
:103120005D4A3C32904203D1486840F47040EDE77C
:10313000594A5032904203D1486840F47020E5E784
:10314000554A6432904203D1486840F47000DDE78C
:10315000514A7832904203D1486840F07060D5E718
:103160004E4A111F904203D1086840F00F0006E05C
:103170004A4A1432904204D1086840F0F0000860D6
:103180007047464A2832904203D1086840F4706084
:10319000F5E7424A3C32904203D1086840F470405F
:1031A000EDE73E4A50329042EAD1086840F4702080
:1031B000E5E730B5026847F6F0739A430C6A8B680E
:1031C0002343D1E904452C4323438C692343CC6931
:1031D00023434C6A23438C6A234313430360CA6826
:1031E00042600A6882604968C16030BD00210160A8
:1031F00041608160C160016141618161C1610162C1
:103200004162816270470029016802D041F00101EA
:1032100002E04FF6FE72114001607047002A02681A
:1032200001D00A4300E08A43026070474160704762
:10323000406880B2704702460020D10002D517498D
:10324000083901E0144908390968114200D0012009
:103250007047C10003D51149091F086070470E4926
:1032600008394860704702460020D10002D50B495A
:10327000083901E0084908390968114200D00120E5
:103280007047C10003D50549091F0860704702490E
:1032900008394860704700000800024008040240F6
:1032A000FD4A116801F03801014311607047FA4985
:1032B0000A6822F008020A600A6802430A6070473E
:1032C000F5490A6822F010020A600A6802430A609F
:1032D0007047F148F1494160F14941607047EE485B
:1032E000EE494160EE4941607047EB48016941F0A9
:1032F000800101617047E848016941F08001016186
:103300007047E5490420CA68D20701D00120704700
:10331000CA68520701D502207047C968C906FBD5A3
:103320000320704700B50346FFF7EBFF02E0FFF70D
:10333000E8FF5B1E012803D0002B00D1052000BD53
:10334000002BF4D1FAE770B505464FF4302630462D
:10335000FFF7E8FF042811D1CF4C206940F00200AC
:1033600020616561206940F0400020613046FFF730
:10337000D9FF216941F6FD721140216170BD30B560
:103380004FF430252846FFF7CDFF042810D1C24C5A
:10339000206940F004002061206940F04000206175
:1033A0002846FFF7BFFF216941F6FB7211402161FA
:1033B00030BD00B50346FFF7A4FF02E0FFF7A1FF11
:1033C0005B1E012803D0002B00D1052000BD002B7F
:1033D000F4D1FAE730B54FF430252846FFF7E9FF7E
:1033E000042810D1AC4C206940F004002061206911
:1033F00040F0400020612846FFF7DBFF216941F6DD
:10340000FB721140216130BDA3490020C9698907C1
:1034100000D50120704770B5A525FFF7F5FF00B175
:1034200000254FF430263046FFF77CFF042827D1D3
:10343000994C9A48A0609A48A060206940F020000A
:103440002061206940F0400020613046FFF76AFFAC
:1034500041F6EF7604280ED1206941F6DF7108406D
:103460002061206940F0100020618E4805804FF4F3
:103470000050FFF757FF052802D021693140216134
:1034800070BDF8B5064600204FF4005C00900D4674
:103490006046FFF747FF042816D17F4C206940F0B3
:1034A0000100206135806046FFF73CFF41F6FE7762
:1034B000042806D1B61C280C009630806046FFF721
:1034C00031FF216939402161F8BDF0B506464FF45E
:1034D00000570D463846FFF725FF04280CD16E4CE7
:1034E000206940F00100206135803846FFF71AFF5F
:1034F0002169BA1E11402161F0BDF0B506464FF4B6
:1035000000570D463846FFF70DFF042813D1624CD3
:103510006248A0606248A060206940F0100020610D
:1035200035803846FFF7FEFE052804D0216941F6B4
:10353000EF7211402161F0BD2DE9F041C043C7B2E7
:10354000C0F30726C0F30745040E4FF40058404669
:10355000FFF7E8FE04283CD1DFF83CC14F49CCF826
:1035600008104F49CCF80810DCF8101041F0100199
:10357000CCF81010FF2F07D04A480830078040468B
:10358000FFF7D0FE04281BD1FF2E07D045480A3094
:1035900006804046FFF7C6FE042811D1FF2D07D054
:1035A00040480C3005804046FFF7BCFE042807D198
:1035B000FF2C07D03B480E3004804046FFF7B2FE98
:1035C000052806D0DCF8101041F6EF721140CCF857
:1035D0001010BDE8F08170B505464FF43026304636
:1035E000FFF7A0FE042818D12B4C2C48A0602C48D3
:1035F000A060206940F020002061206940F0400078
:1036000020613046FFF78EFE41F6DF71042805D0B9
:10361000052802D022690A40226170BD2069084055
:103620002061206940F0100020611E480DB100218A
:1036300000E0A52101803046FFF774FE0528ECD09C
:10364000216941F6EF721140216170BDF0B5124C55
:103650000746124816460D46A0601148A0604FF478
:10366000005C6046FFF75EFE042814D1206940F03C
:103670001000206135430B493D43891C45F0F8009B
:1036800008806046FFF74EFE052804D0216941F608
:10369000EF7211402161F0BD002002402301674517
:1036A000AB89EFCD00F8FF1F1C48C0698008704748
:1036B0001A48006A7047194900200968890600D530
:1036C00001207047154A0029116901D0014300E02B
:1036D00081431161704701460020104A012903D03F
:1036E000D2680A4203D17047D169C907FBD00120D3
:1036F00070470A49C860704708490420CA68D20761
:1037000001D001207047CA68520701D502207047D6
:10371000C968C906FBD5032070470000002002409D
:103720008F4910B5884206D10121042000F049FAE2
:10373000002104203BE08B49884206D1012108206A
:1037400000F03FFA0021082031E08749884206D185
:103750000121102000F035FA0021102027E08349D4
:10376000884206D10121202000F02BFA00212020E0
:103770001DE07F49884206D10121402000F021FA56
:103780000021402013E07B49884206D1012180209E
:1037900000F017FA0021802009E0774988420AD119
:1037A00084150121204600F00CFA00212046BDE8D6
:1037B000104000F006BA10BD10B50121084600F017
:1037C00000FA0021BDE81040012000F0FAB9F0B580
:1037D000CC78002204F00F03E40601D58C78234353
:1037E0000C784FF00F0C14F0FF0F4FF0010E1BD0B0
:1037F00005680E880EFA02F42640A64210D1960003
:103800000CFA06F725EA070703FA06F5CE783D43DA
:10381000282E02D0482E02D002E0446100E004616C
:10382000521C082AE5D305600A88FF2A1CD944687F
:10383000002202F108060EFA06F50E882E40AE426E
:103840000ED196000CFA06F7BC4303FA06F7CE78C1
:103850003C43282E00D14561CE78482E00D1056129
:10386000521C082AE5D34460F0BD4FF6FF71018079
:10387000022181700421C1707047024600209268C5
:103880000A4200D001207047806880B2704702462B
:103890000020D2680A4200D001207047C06880B280
:1038A000704701617047416170470AB1016170471B
:1038B00041617047C160704741F48032826181612B
:1038C00082618169806970472C4B10B51A684FF688
:1038D0008074224042EA00100843186010BD284955
:1038E000C8617047F0B5254C002801DAE36900E0B3
:1038F0006368450D2E0185B2C0F30157B540C0F392
:103900000342032F05D0C6020AD503269640B343CF
:1039100007E023F07062636823F07063636002E085
:10392000AB4343F0706201B12A43002801DAE2613F
:10393000F0BD6260F0BD10B58A0721F003040F49A5
:10394000120F21440F238C6893409C438C608B683A
:10395000904003438B6010BD0949C1F8DC007047FB
:1039600000080140000C014000100140001401401B
:1039700000180140001C01400020014000000140EF
:1039800000002042A548016841F001010160416842
:10399000A34A114041600168A24A114001600168D8
:1039A00021F480210160416821F4FE0141604FF45F
:1039B0001F018160704799490A6822F480320A60C9
:1039C0000A6822F480220A60B0F5803F07D0B0F583
:1039D000802F03D1086840F4A02008607047086871
:1039E00040F48030F9E70346002059098B4A012949
:1039F0000AD002290AD0516A03F01F020123934022
:103A00000B4200D0012070471168F5E7116AF3E717
:103A100018B500204FF4A06400903120FFF7E3FFB9
:103A20000099491C0091A14201D00028F5D0312015
:103A3000FFF7D9FF002800D0012018BD774A116890
:103A400021F0F80141EAC000106070477649086033
:103A50007047724B5A68084322F47C121043586036
:103A600070477149086670476C4A516821F003013C
:103A70000143516070476948406800F00C0070478E
:103A8000664A516821F0F001014351607047634A72
:103A9000516821F4E0610143516070475F4A516809
:103AA00021F4605141EAC000506070475B4A002930
:103AB000517A01D0014300E08143517270475A4965
:103AC000C1F8D8007047554A516821F4404101437C
:103AD000516070475149002281F8202081F8202050
:103AE000012802D0042802D1052081F82000704767
:103AF0004E490860704749490A6A02430A627047A2
:103B00004A4944390860704730B5444A5168484BC7
:103B100011F00C0103D0042901D0082901D0036061
:103B200012E05168536801F470114FF0020413F46D
:103B3000803F04EB914102D053689B0301D53D4B7C
:103B400000E03B4B5943016051680F2303EA111118
:103B5000394B5C5C0168E14041605468072505EA27
:103B600014241C5D21FA04F48460546805EAD4240A
:103B70001B5DD940C1605268032303EA92322E4B89
:103B80001B1F9A5CB1FBF2F1016130BD234A002991
:103B9000516901D0014300E08143516170471F4AE0
:103BA0000029916901D0014300E081439161704790
:103BB0001A4A0029D16901D0014300E08143D16153
:103BC0007047164A0029D16801D0014300E08143C3
:103BD000D1607047114A0029116901D0014300E00A
:103BE00081431161704711494039086070470E499F
:103BF000C86470470949C87170470848416A41F074
:103C0000807141627047054A0146002092680A426D
:103C100000D00120704701498872704700100240AF
:103C20000000FFF8FFFFF6FE00004242800442421F
:103C3000001BB700808D5B007C010020994910B506
:103C400088420AD1841401212046FFF7BAFF20469A
:103C5000BDE810400021FFF7B4BF9349884202D16C
:103C60000121041404E0914988420AD10121C413BE
:103C70002046FFF7AFFF2046BDE810400021FFF7C8
:103C8000A9BF10BD30B502884C8802F441530A88A0
:103C9000CD8822438C882C4322430C8922434C89B3
:103CA00022438C892243CC8922431A430280828B8F
:103CB00022F400628283098A018230BDF0B5054694
:103CC0000C4602200021AA8B85B001264FF240034A
:103CD0001A40AA832884AF8BA268022A21D0A08828
:103CE00000B102266846FFF70FFFE1880098B1F5A2
:103CF000007F2CD07101B0FBF1F000EB8000A168D7
:103D00004000B0FBF1F0401D80B20A21B0FBF1F0A1
:103D100000F00101401A4FF6FF72C0F34F0002EAB3
:103D20000121821EFE2A01D302200021E2880843DD
:103D300002432A8420886188A2890843A18811430C
:103D40000843384340F40060A88305B0F0BD000A82
:103D5000D3E70021018041808180C18001814181C0
:103D60008181C1810721018270470021018041804A
:103D70008180C18002228260818170470029018890
:103D800002D041F0400101E021F040010180704784
:103D90000029818B02D041F4806101E021F480612F
:103DA00081837047090901238B40002A828899B2D8
:103DB00001D00A4300E08A4382807047002A82884B
:103DC00001D00A4300E08A438280704781817047B6
:103DD00080897047A1F57E420188FF3A02D041F404
:103DE000807101E021F48071018070470029818891
:103DF00002D041F0040101E021F00401818070470C
:103E0000028822F40062028002880A43028070471E
:103E1000018841F48051018070470029018802D057
:103E200041F4005101E021F4005101807047012963
:103E300001D0008B7047808A7047008A7047B1F5C7
:103E4000804F018803D021F480410180704741F404
:103E50008041FAE70246002012890A4200D0012080
:103E60007047C9430181704730B501F00F03012548
:103E7000024605FA03F40020A3B2090905FA01F489
:103E80009188A4B2128921401A4202D0002900D0A0
:103E9000012030BD01F00F0201219140C943018191
:103EA000704700000030014000380040003C0040F6
:103EB000704770477047754600F02CF8AE46050015
:103EC0006946534620F00700854618B020B5FEF736
:103ED000F7FFBDE820404FF000064FF000074FF01D
:103EE00000084FF0000B21F00701AC46ACE8C00918
:103EF000ACE8C009ACE8C009ACE8C0098D46704721
:103F000010B50446AFF300802046BDE81040FCF732
:103F100054B9000000487047FC19002001491820DE
:103F2000ABBEFEE72600020070470000FFFFFF0067
:103F30000000000000000000000000000000000081
:103F40000000000000000000000000000000000071
:103F5000010101010101010101010101010202024E
:103F60000202020202030303030303030404040422
:103F700004050505050606060607070707080808DD
:103F80000909090A0A0A0B0B0B0C0C0D0D0D0E0E7C
:103F90000F0F1010111112121313141415151616F9
:103FA00017181819191A1B1B1C1D1D1E1F20202154
:103FB000222323242526272728292A2B2C2D2E2F80
:103FC000303132323334363738393A3B3C3D3E3F7C
:103FD00040424344454648494A4B4D4E4F51525347
:103FE000555657595A5C5D5F606263656668696BD8
:103FF0006D6E7072737577787A7C7E7F818385872A
:10400000898A8C8E90929496989A9C9EA0A2A4A73E
:10401000A9ABADAFB1B4B6B8BABDBFC1C4C6C8CB09
:10402000CDD0D2D5D7DADCDFE1E4E7E9ECEFF1F48B
:10403000F7F9FCFF00000000000080000080000095
:1040400000808000800000008000800080800000F0
:1040500080808000C0C0C0000000FF0000FF0000A2
:1040600000FFFF00FF000000FF00FF00FFFF000057
:10407000FFFFFF0000000000000000000000000043
:104080000000000000000000000000000000000030
:104090000000000000000000000000000000000020
:1040A0000000000000000000000000000000000010
:1040B0000000000000000000000000000000000000
:1040C00000000000000000000000000000000000F0
:1040D0000000000000000000330000006600000047
:1040E00099000000CC000000FF0000000033000039
:1040F000333300006633000099330000CC330000F6
:10410000FF330000006600003366000066660000B2
:1041100099660000CC660000FF6600000099000070
:10412000339900006699000099990000CC9900002D
:10413000FF99000000CC000033CC000066CC0000EA
:1041400099CC0000CCCC0000FFCC000000FF0000A8
:1041500033FF000066FF000099FF0000CCFF000065
:10416000FFFF00000000330033003300660033001F
:1041700099003300CC003300FF00330000333300DC
:10418000333333006633330099333300CC33330099
:10419000FF33330000663300336633006666330056
:1041A00099663300CC663300FF6633000099330014
:1041B000339933006699330099993300CC993300D1
:1041C000FF99330000CC330033CC330066CC33008E
:1041D00099CC3300CCCC3300FFCC330000FF33004C
:1041E00033FF330066FF330099FF3300CCFF330009
:1041F000FFFF3300000066003300660066006600C3
:1042000099006600CC006600FF006600003366007F
:10421000333366006633660099336600CC3366003C
:10422000FF336600006666003366660066666600F9
:1042300099666600CC666600FF66660000996600B7
:10424000339966006699660099996600CC99660074
:10425000FF99660000CC660033CC660066CC660031
:1042600099CC6600CCCC6600FFCC660000FF6600EF
:1042700033FF660066FF660099FF6600CCFF6600AC
:10428000FFFF660000009900330099006600990066
:1042900099009900CC009900FF0099000033990023
:1042A000333399006633990099339900CC339900E0
:1042B000FF3399000066990033669900666699009D
:1042C00099669900CC669900FF669900009999005B
:1042D000339999006699990099999900CC99990018
:1042E000FF99990000CC990033CC990066CC9900D5
:1042F00099CC9900CCCC9900FFCC990000FF990093
:1043000033FF990066FF990099FF9900CCFF99004F
:10431000FFFF99000000CC003300CC006600CC0009
:104320009900CC00CC00CC00FF00CC000033CC00C6
:104330003333CC006633CC009933CC00CC33CC0083
:10434000FF33CC000066CC003366CC006666CC0040
:104350009966CC00CC66CC00FF66CC000099CC00FE
:104360003399CC006699CC009999CC00CC99CC00BB
:10437000FF99CC0000CCCC0033CCCC0066CCCC0078
:1043800099CCCC00CCCCCC00FFCCCC0000FFCC0036
:1043900033FFCC0066FFCC0099FFCC00CCFFCC00F3
:1043A000FFFFCC000000FF003300FF006600FF00AD
:1043B0009900FF00CC00FF00FF00FF000033FF006A
:1043C0003333FF006633FF009933FF00CC33FF0027
:1043D000FF33FF000066FF003366FF006666FF00E4
:1043E0009966FF00CC66FF00FF66FF000099FF00A2
:1043F0003399FF006699FF009999FF00CC99FF005F
:10440000FF99FF0000CCFF0033CCFF0066CCFF001B
:1044100099CCFF00CCCCFF00FFCCFF0000FFFF00D9
:1044200033FFFF0066FFFF0099FFFF00CCFFFF0096
:10443000FFFFFF000000004000020042100010409B
:10444000100210421863007CE003E07F1F001F7C15
:10445000FF03FF7F000000000000000000000000DC
:10446000000000000000000000000000000000004C
:10447000000000000000000000000000000000003C
:1044800000000000000006000C00130019001F00CF
:10449000C000C600CC00D300D900DF008001860137
:1044A0008C01930199019F01600266026C02730204
:1044B00079027F02200326032C03330339033F03D1
:1044C000E003E603EC03F303F903FF030018061807
:1044D0000C18131819181F18C018C618CC18D318A0
:1044E000D918DF18801986198C19931999199F19F1
:1044F000601A661A6C1A731A791A7F1A201B261B07
:104500002C1B331B391B3F1BE01BE61BEC1BF31B57
:10451000F91BFF1B003006300C30133019301F30F0
:10452000C030C630CC30D330D930DF308031863126
:104530008C31933199319F31603266326C327332F3
:1045400079327F32203326332C33333339333F33C0
:10455000E033E633EC33F333F933FF33004C064CEE
:104560000C4C134C194C1F4CC04CC64CCC4CD34C6F
:10457000D94CDF4C804D864D8C4D934D994D9F4DC0
:10458000604E664E6C4E734E794E7F4E204F264FD6
:104590002C4F334F394F3F4FE04FE64FEC4FF34F27
:1045A000F94FFF4F006406640C64136419641F64C0
:1045B000C064C664CC64D364D964DF6480658665F6
:1045C0008C65936599659F65606666666C667366C3
:1045D00079667F66206726672C67336739673F6790
:1045E000E067E667EC67F367F967FF67007C067CC6
:1045F0000C7C137C197C1F7CC07CC67CCC7CD37C5F
:10460000D97CDF7C807D867D8C7D937D997D9F7DAF
:10461000607E667E6C7E737E797E7F7E207F267FC5
:104620002C7F337F397F3F7FE07FE67FEC7FF37F16
:10463000F97FFF7FD8F2596DE4208FFC2206A39EFC
:10464000948A0E0EA527A3CCF84A290E250951629B
:10465000E45BA05473114FA55AB0780A7F93884049
:10466000D9C6D99B32657575DA70EA8DC94B48DABF
:10467000CF2D18C6654F2B823A68B3F4AE984C65BF
:10468000C1E8345E30B52F7EE62A790327C1DC0FFE
:10469000679E3B527BC2DA899B5660C9B180C74195
:1046A0002485CBE016E9AA19FD9AE03AD5275B7874
:1046B0008CA48C105DFAEAFF0EABC3D95566CC66AC
:1046C0006338DFA1F6FBF87EF32254E0E19FB37379
:1046D000FBE73D0CF3B6E3299BCCD26B26D0C39706
:1046E000CE7AD79D48B98290AC0E1C3BA5091D6EB1
:1046F000F74FDE6E29BF72AC54B50629298C5822BB
:104700005EBD1267C8162A4164AC60E599A8849121
:10471000AE6374D6F2556E0E072A4893B3596720DC
:10472000B6FADCE8F6B6A6E0249C0A7C5F8D12ABF4
:1047300031747BC5178130094E035F9ECD978E0B78
:10474000453F2E9FCC9B9AF7BD93B1554BF1AF7A65
:10475000179C623EDDA10834CAD399F35607128D27
:104760000EFE371F5E73DF95D9830883D0DABE5DF6
:1047700054E4863135502DA337F9D5F902A7A0B5F9
:104780008124474CBA901CA4BDCC645A998464EF30
:10479000143C9F7281E157BDD193E7649DE693324B
:1047A000E25202AB9272A3C3C8E27368EBD30AB3BE
:1047B00095E5E4C5082E349FCC897A26A8B706D69D
:1047C0003932774682B95DA298DBA99E6DEFD2FDA2
:1047D0008934CFB702CD29B31E62DF09F77D1A10E5
:1047E000DB9C2FB95CC430DB88412C2D859532DDF4
:1047F000B77C9C74E84ED46B08C3271FD954AB1BFD
:10480000C098C3D1C018A1C503F32FC0A0FC2E8847
:104810003002517AE0A6288CC8C3B0989C110234AB
:1048200095116CECD2611C9EDAD770F41F13CB0C7F
:10483000949EEED702303B1A703608FC670928F1C7
:10484000F1FB2A8F8F42B6CFE5B29F0935336CB4A6
:10485000F7A403FD222A3165D5527B9B582036D11F
:10486000AE7E0324E93C7C52E81FF24F9132E43CD7
:10487000C95405C3052BCFC6C9C5B93DC61B77C5ED
:104880007BCE5AB63048CABB27B1150338E1D3A353
:104890006D3FD1031B73CB83AF3C5A23823E8BCC3D
:1048A000A82DD4C3D72E0B818A499B5315CB8EE7F5
:1048B000F216D0874974AA0802D706F4EDA739E9A1
:1048C00026485B0B0D10CB3E334F79D1D7776DE384
:1048D000AD73316C6E04823483CBC000271793E232
:1048E00010B22DCD7083D9E14A9153FAFBD8318AA9
:1048F0006A23467A76CD7B21C52788424FCB171C89
:10490000BC96C124499F722A994F21DCB08839AAEC
:104910009A369503D0196C42370C0749FB97917E64
:104920007A373D64160C40CAB01CE026AB9E713C41
:10493000EDDDA71835134CA2297EEC3D97282F01F9
:10494000BDA361794BD4948DF6CB53B43846979878
:104950009ACB5B1EEF784866EB9A3A972002328733
:10496000EDDF68083CF8F119481A226AC0976AE33B
:10497000E753A3CCCD1011455AFB8EB099FC6DF3D3
:1049800099CBC659DE8F5CA2DA42D5D556DEA65346
:104990003057B0CC5F65BADCCD23AD416A407F4C67
:1049A000AD2ED1F4D1110557F700F28A3B3CEE7BD6
:1049B000543A80424CA1943311EA8BBAE11A3899E7
:1049C000C28928270DB2811E5158D45E732FA09141
:1049D0003431ED2FC03C000B999DE3E6854A76DD2E
:1049E000C859C7B213C76EA2B961F1F3CC36C0E1A2
:1049F00049FA86AF2C09D885891C8D6FCF9B990603
:104A0000E2F6961968EE7D6DC34B765F4B0C3E6304
:104A1000DD019D8AC4C6B0BE804229F739FFD21D90
:104A2000C8EA11D6A0A6795A7D19ECE193793A7CAF
:104A3000DD2A92CD12010002000000408404042807
:104A400000020102030109022900010100C032092C
:104A500004000002030000000921100100012220CF
:104A6000000705810304000107050103400001065A
:104A700000FF0901A10119012908150025FF75088A
:104A80009504810019012908750895409100C0041A
:104A90000309042603530054004D006900630072AB
:104AA000006F0065006C0065006300740072006FA9
:104AB000006E0069006300730020034C0045004451
:104AC0000050004900580045004C00200020002004
:104AD000002000200020002000000000FC4A000808
:104AE000000000208C01000028010008984B0008FD
:104AF0008C010020D41E00008401000881032201E3
:104B0000011A0101C1141A03531254124D12331227
:104B100032124602213113B1180C1408A724040ADA
:104B200019B91C5A027613344A3308121A4608324D
:104B3000291A6F0832201A5808320913D11A1B0893
:104B4000ED0413B31B1B08B5041ADB04133B1C1B39
:104B5000087D041A53041A5B041A63044132401A94
:104B60008F3832041A930832265AB950223C332027
:104B70001A297C1A8D440916981AAB1C41599F01B9
:104B80001A2BA24A6751480C0102030406070809C0
:084B90000204063C191069142F
:0400000508002EA51C
:00000001FF
